{
  "fileName": "AccessControlMock.sol",
  "contractName": "AccessControlMock",
  "source": "pragma solidity ^0.6.0;\n\nimport \"../access/AccessControl.sol\";\n\ncontract AccessControlMock is AccessControl {\n    constructor() public {\n        _setupRole(DEFAULT_ADMIN_ROLE, _msgSender());\n    }\n\n    function setRoleAdmin(bytes32 roleId, bytes32 adminRoleId) public {\n        _setRoleAdmin(roleId, adminRoleId);\n    }\n}\n",
  "sourcePath": "contracts/mocks/AccessControlMock.sol",
  "abi": [
    {
      "inputs": [],
      "stateMutability": "nonpayable",
      "type": "constructor"
    },
    {
      "anonymous": false,
      "inputs": [
        {
          "indexed": true,
          "internalType": "bytes32",
          "name": "role",
          "type": "bytes32"
        },
        {
          "indexed": true,
          "internalType": "address",
          "name": "account",
          "type": "address"
        },
        {
          "indexed": true,
          "internalType": "address",
          "name": "sender",
          "type": "address"
        }
      ],
      "name": "RoleGranted",
      "type": "event"
    },
    {
      "anonymous": false,
      "inputs": [
        {
          "indexed": true,
          "internalType": "bytes32",
          "name": "role",
          "type": "bytes32"
        },
        {
          "indexed": true,
          "internalType": "address",
          "name": "account",
          "type": "address"
        },
        {
          "indexed": true,
          "internalType": "address",
          "name": "sender",
          "type": "address"
        }
      ],
      "name": "RoleRevoked",
      "type": "event"
    },
    {
      "inputs": [],
      "name": "DEFAULT_ADMIN_ROLE",
      "outputs": [
        {
          "internalType": "bytes32",
          "name": "",
          "type": "bytes32"
        }
      ],
      "stateMutability": "view",
      "type": "function"
    },
    {
      "inputs": [
        {
          "internalType": "bytes32",
          "name": "role",
          "type": "bytes32"
        }
      ],
      "name": "getRoleAdmin",
      "outputs": [
        {
          "internalType": "bytes32",
          "name": "",
          "type": "bytes32"
        }
      ],
      "stateMutability": "view",
      "type": "function"
    },
    {
      "inputs": [
        {
          "internalType": "bytes32",
          "name": "role",
          "type": "bytes32"
        },
        {
          "internalType": "uint256",
          "name": "index",
          "type": "uint256"
        }
      ],
      "name": "getRoleMember",
      "outputs": [
        {
          "internalType": "address",
          "name": "",
          "type": "address"
        }
      ],
      "stateMutability": "view",
      "type": "function"
    },
    {
      "inputs": [
        {
          "internalType": "bytes32",
          "name": "role",
          "type": "bytes32"
        }
      ],
      "name": "getRoleMemberCount",
      "outputs": [
        {
          "internalType": "uint256",
          "name": "",
          "type": "uint256"
        }
      ],
      "stateMutability": "view",
      "type": "function"
    },
    {
      "inputs": [
        {
          "internalType": "bytes32",
          "name": "role",
          "type": "bytes32"
        },
        {
          "internalType": "address",
          "name": "account",
          "type": "address"
        }
      ],
      "name": "grantRole",
      "outputs": [],
      "stateMutability": "nonpayable",
      "type": "function"
    },
    {
      "inputs": [
        {
          "internalType": "bytes32",
          "name": "role",
          "type": "bytes32"
        },
        {
          "internalType": "address",
          "name": "account",
          "type": "address"
        }
      ],
      "name": "hasRole",
      "outputs": [
        {
          "internalType": "bool",
          "name": "",
          "type": "bool"
        }
      ],
      "stateMutability": "view",
      "type": "function"
    },
    {
      "inputs": [
        {
          "internalType": "bytes32",
          "name": "role",
          "type": "bytes32"
        },
        {
          "internalType": "address",
          "name": "account",
          "type": "address"
        }
      ],
      "name": "renounceRole",
      "outputs": [],
      "stateMutability": "nonpayable",
      "type": "function"
    },
    {
      "inputs": [
        {
          "internalType": "bytes32",
          "name": "role",
          "type": "bytes32"
        },
        {
          "internalType": "address",
          "name": "account",
          "type": "address"
        }
      ],
      "name": "revokeRole",
      "outputs": [],
      "stateMutability": "nonpayable",
      "type": "function"
    },
    {
      "inputs": [
        {
          "internalType": "bytes32",
          "name": "roleId",
          "type": "bytes32"
        },
        {
          "internalType": "bytes32",
          "name": "adminRoleId",
          "type": "bytes32"
        }
      ],
      "name": "setRoleAdmin",
      "outputs": [],
      "stateMutability": "nonpayable",
      "type": "function"
    }
  ],
  "bytecode": "0x608060405234801561001057600080fd5b506100316000801b61002661003660201b60201c565b61003e60201b60201c565b6101be565b600033905090565b61004e828261005260201b60201c565b5050565b61007d816000808581526020019081526020016000206000016100ef60201b61074c1790919060201c565b156100eb5761009061003660201b60201c565b73ffffffffffffffffffffffffffffffffffffffff168173ffffffffffffffffffffffffffffffffffffffff16837f2f8788117e7eff1d82e926ec794901d17c78024a50270940304540a733656f0d60405160405180910390a45b5050565b600061011d836000018373ffffffffffffffffffffffffffffffffffffffff1660001b61012560201b60201c565b905092915050565b6000610137838361019b60201b60201c565b610190578260000182908060018154018082558091505060019003906000526020600020016000909190919091505582600001805490508360010160008481526020019081526020016000208190555060019050610195565b600090505b92915050565b600080836001016000848152602001908152602001600020541415905092915050565b610aa1806101cd6000396000f3fe608060405234801561001057600080fd5b50600436106100935760003560e01c80639010d07c116100665780639010d07c146101ae57806391d1485414610226578063a217fddf1461028c578063ca15c873146102aa578063d547741f146102ec57610093565b80631e4e009114610098578063248a9ca3146100d05780632f2ff15d1461011257806336568abe14610160575b600080fd5b6100ce600480360360408110156100ae57600080fd5b81019080803590602001909291908035906020019092919050505061033a565b005b6100fc600480360360208110156100e657600080fd5b8101908080359060200190929190505050610348565b6040518082815260200191505060405180910390f35b61015e6004803603604081101561012857600080fd5b8101908080359060200190929190803573ffffffffffffffffffffffffffffffffffffffff169060200190929190505050610367565b005b6101ac6004803603604081101561017657600080fd5b8101908080359060200190929190803573ffffffffffffffffffffffffffffffffffffffff1690602001909291905050506103f0565b005b6101e4600480360360408110156101c457600080fd5b810190808035906020019092919080359060200190929190505050610489565b604051808273ffffffffffffffffffffffffffffffffffffffff1673ffffffffffffffffffffffffffffffffffffffff16815260200191505060405180910390f35b6102726004803603604081101561023c57600080fd5b8101908080359060200190929190803573ffffffffffffffffffffffffffffffffffffffff1690602001909291905050506104ba565b604051808215151515815260200191505060405180910390f35b6102946104eb565b6040518082815260200191505060405180910390f35b6102d6600480360360208110156102c057600080fd5b81019080803590602001909291905050506104f2565b6040518082815260200191505060405180910390f35b6103386004803603604081101561030257600080fd5b8101908080359060200190929190803573ffffffffffffffffffffffffffffffffffffffff169060200190929190505050610518565b005b61034482826105a1565b5050565b6000806000838152602001908152602001600020600201549050919050565b61038d600080848152602001908152602001600020600201546103886105bf565b6104ba565b6103e2576040517f08c379a000000000000000000000000000000000000000000000000000000000815260040180806020018281038252602f8152602001806109de602f913960400191505060405180910390fd5b6103ec82826105c7565b5050565b6103f86105bf565b73ffffffffffffffffffffffffffffffffffffffff168173ffffffffffffffffffffffffffffffffffffffff161461047b576040517f08c379a000000000000000000000000000000000000000000000000000000000815260040180806020018281038252602f815260200180610a3d602f913960400191505060405180910390fd5b610485828261065a565b5050565b60006104b2826000808681526020019081526020016000206000016106ed90919063ffffffff16565b905092915050565b60006104e38260008086815260200190815260200160002060000161070790919063ffffffff16565b905092915050565b6000801b81565b6000610511600080848152602001908152602001600020600001610737565b9050919050565b61053e600080848152602001908152602001600020600201546105396105bf565b6104ba565b610593576040517f08c379a0000000000000000000000000000000000000000000000000000000008152600401808060200182810382526030815260200180610a0d6030913960400191505060405180910390fd5b61059d828261065a565b5050565b80600080848152602001908152602001600020600201819055505050565b600033905090565b6105ee8160008085815260200190815260200160002060000161074c90919063ffffffff16565b15610656576105fb6105bf565b73ffffffffffffffffffffffffffffffffffffffff168173ffffffffffffffffffffffffffffffffffffffff16837f2f8788117e7eff1d82e926ec794901d17c78024a50270940304540a733656f0d60405160405180910390a45b5050565b6106818160008085815260200190815260200160002060000161077c90919063ffffffff16565b156106e95761068e6105bf565b73ffffffffffffffffffffffffffffffffffffffff168173ffffffffffffffffffffffffffffffffffffffff16837ff6391f5c32d9c69d2a47ea670b442974b53935d1edc7fd64eb21e047a839171b60405160405180910390a45b5050565b60006106fc83600001836107ac565b60001c905092915050565b600061072f836000018373ffffffffffffffffffffffffffffffffffffffff1660001b61082f565b905092915050565b600061074582600001610852565b9050919050565b6000610774836000018373ffffffffffffffffffffffffffffffffffffffff1660001b610863565b905092915050565b60006107a4836000018373ffffffffffffffffffffffffffffffffffffffff1660001b6108d3565b905092915050565b60008183600001805490501161080d576040517f08c379a00000000000000000000000000000000000000000000000000000000081526004018080602001828103825260228152602001806109bc6022913960400191505060405180910390fd5b82600001828154811061081c57fe5b9060005260206000200154905092915050565b600080836001016000848152602001908152602001600020541415905092915050565b600081600001805490509050919050565b600061086f838361082f565b6108c85782600001829080600181540180825580915050600190039060005260206000200160009091909190915055826000018054905083600101600084815260200190815260200160002081905550600190506108cd565b600090505b92915050565b600080836001016000848152602001908152602001600020549050600081146109af576000600182039050600060018660000180549050039050600086600001828154811061091e57fe5b906000526020600020015490508087600001848154811061093b57fe5b906000526020600020018190555060018301876001016000838152602001908152602001600020819055508660000180548061097357fe5b600190038181906000526020600020016000905590558660010160008781526020019081526020016000206000905560019450505050506109b5565b60009150505b9291505056fe456e756d657261626c655365743a20696e646578206f7574206f6620626f756e6473416363657373436f6e74726f6c3a2073656e646572206d75737420626520616e2061646d696e20746f206772616e74416363657373436f6e74726f6c3a2073656e646572206d75737420626520616e2061646d696e20746f207265766f6b65416363657373436f6e74726f6c3a2063616e206f6e6c792072656e6f756e636520726f6c657320666f722073656c66a26469706673582212208ba7dbf89403de5d1a5f5c43e40345e59321eecee6b0347670839598afa1e0d064736f6c63430006060033",
  "compiler": {
    "name": "solc",
    "version": "0.6.6+commit.6c089d02.Emscripten.clang",
    "optimizer": {
      "enabled": false,
      "runs": 200
    },
    "evmVersion": "petersburg"
  }
}