{
  "fileName": "EnumerableSetMock.sol",
  "contractName": "EnumerableSetMock",
  "source": "pragma solidity ^0.6.0;\n\nimport \"../utils/EnumerableSet.sol\";\n\ncontract EnumerableSetMock {\n    using EnumerableSet for EnumerableSet.AddressSet;\n\n    event OperationResult(bool result);\n\n    EnumerableSet.AddressSet private _set;\n\n    function contains(address value) public view returns (bool) {\n        return _set.contains(value);\n    }\n\n    function add(address value) public {\n        bool result = _set.add(value);\n        emit OperationResult(result);\n    }\n\n    function remove(address value) public {\n        bool result = _set.remove(value);\n        emit OperationResult(result);\n    }\n\n    function length() public view returns (uint256) {\n        return _set.length();\n    }\n\n    function at(uint256 index) public view returns (address) {\n        return _set.at(index);\n    }\n}\n",
  "sourcePath": "contracts/mocks/EnumerableSetMock.sol",
  "abi": [
    {
      "anonymous": false,
      "inputs": [
        {
          "indexed": false,
          "internalType": "bool",
          "name": "result",
          "type": "bool"
        }
      ],
      "name": "OperationResult",
      "type": "event"
    },
    {
      "inputs": [
        {
          "internalType": "address",
          "name": "value",
          "type": "address"
        }
      ],
      "name": "add",
      "outputs": [],
      "stateMutability": "nonpayable",
      "type": "function"
    },
    {
      "inputs": [
        {
          "internalType": "uint256",
          "name": "index",
          "type": "uint256"
        }
      ],
      "name": "at",
      "outputs": [
        {
          "internalType": "address",
          "name": "",
          "type": "address"
        }
      ],
      "stateMutability": "view",
      "type": "function"
    },
    {
      "inputs": [
        {
          "internalType": "address",
          "name": "value",
          "type": "address"
        }
      ],
      "name": "contains",
      "outputs": [
        {
          "internalType": "bool",
          "name": "",
          "type": "bool"
        }
      ],
      "stateMutability": "view",
      "type": "function"
    },
    {
      "inputs": [],
      "name": "length",
      "outputs": [
        {
          "internalType": "uint256",
          "name": "",
          "type": "uint256"
        }
      ],
      "stateMutability": "view",
      "type": "function"
    },
    {
      "inputs": [
        {
          "internalType": "address",
          "name": "value",
          "type": "address"
        }
      ],
      "name": "remove",
      "outputs": [],
      "stateMutability": "nonpayable",
      "type": "function"
    }
  ],
  "bytecode": "0x608060405234801561001057600080fd5b506105eb806100206000396000f3fe608060405234801561001057600080fd5b50600436106100575760003560e01c80630a3b0a4f1461005c5780631f7b6d32146100a057806329092d0e146100be5780635dbe47e814610102578063e0886f901461015e575b600080fd5b61009e6004803603602081101561007257600080fd5b81019080803573ffffffffffffffffffffffffffffffffffffffff1690602001909291905050506101cc565b005b6100a8610223565b6040518082815260200191505060405180910390f35b610100600480360360208110156100d457600080fd5b81019080803573ffffffffffffffffffffffffffffffffffffffff169060200190929190505050610234565b005b6101446004803603602081101561011857600080fd5b81019080803573ffffffffffffffffffffffffffffffffffffffff16906020019092919050505061028b565b604051808215151515815260200191505060405180910390f35b61018a6004803603602081101561017457600080fd5b81019080803590602001909291905050506102a8565b604051808273ffffffffffffffffffffffffffffffffffffffff1673ffffffffffffffffffffffffffffffffffffffff16815260200191505060405180910390f35b60006101e28260006102c590919063ffffffff16565b90507fed9840e0775590557ad736875d96c95cf1458b766335f74339951a32c82a9e3381604051808215151515815260200191505060405180910390a15050565b600061022f60006102f5565b905090565b600061024a82600061030a90919063ffffffff16565b90507fed9840e0775590557ad736875d96c95cf1458b766335f74339951a32c82a9e3381604051808215151515815260200191505060405180910390a15050565b60006102a182600061033a90919063ffffffff16565b9050919050565b60006102be82600061036a90919063ffffffff16565b9050919050565b60006102ed836000018373ffffffffffffffffffffffffffffffffffffffff1660001b610384565b905092915050565b6000610303826000016103f4565b9050919050565b6000610332836000018373ffffffffffffffffffffffffffffffffffffffff1660001b610405565b905092915050565b6000610362836000018373ffffffffffffffffffffffffffffffffffffffff1660001b6104ed565b905092915050565b60006103798360000183610510565b60001c905092915050565b600061039083836104ed565b6103e95782600001829080600181540180825580915050600190039060005260206000200160009091909190915055826000018054905083600101600084815260200190815260200160002081905550600190506103ee565b600090505b92915050565b600081600001805490509050919050565b600080836001016000848152602001908152602001600020549050600081146104e1576000600182039050600060018660000180549050039050600086600001828154811061045057fe5b906000526020600020015490508087600001848154811061046d57fe5b90600052602060002001819055506001830187600101600083815260200190815260200160002081905550866000018054806104a557fe5b600190038181906000526020600020016000905590558660010160008781526020019081526020016000206000905560019450505050506104e7565b60009150505b92915050565b600080836001016000848152602001908152602001600020541415905092915050565b600081836000018054905011610571576040517f08c379a00000000000000000000000000000000000000000000000000000000081526004018080602001828103825260228152602001806105946022913960400191505060405180910390fd5b82600001828154811061058057fe5b906000526020600020015490509291505056fe456e756d657261626c655365743a20696e646578206f7574206f6620626f756e6473a264697066735822122094873e5b0537196d308b551ec15c0799b108cc532182d918bc178547cb61079e64736f6c63430006060033",
  "compiler": {
    "name": "solc",
    "version": "0.6.6+commit.6c089d02.Emscripten.clang",
    "optimizer": {
      "enabled": false,
      "runs": 200
    },
    "evmVersion": "petersburg"
  }
}