{
  "fileName": "SafeCastMock.sol",
  "contractName": "SafeCastMock",
  "source": "pragma solidity ^0.6.0;\n\nimport \"../utils/SafeCast.sol\";\n\ncontract SafeCastMock {\n    using SafeCast for uint;\n    using SafeCast for int;\n\n    function toUint256(int a) public pure returns (uint256) {\n        return a.toUint256();\n    }\n\n    function toInt256(uint a) public pure returns (int256) {\n        return a.toInt256();\n    }\n\n    function toUint128(uint a) public pure returns (uint128) {\n        return a.toUint128();\n    }\n\n    function toUint64(uint a) public pure returns (uint64) {\n        return a.toUint64();\n    }\n\n    function toUint32(uint a) public pure returns (uint32) {\n        return a.toUint32();\n    }\n\n    function toUint16(uint a) public pure returns (uint16) {\n        return a.toUint16();\n    }\n\n    function toUint8(uint a) public pure returns (uint8) {\n        return a.toUint8();\n    }\n}\n",
  "sourcePath": "contracts/mocks/SafeCastMock.sol",
  "abi": [
    {
      "inputs": [
        {
          "internalType": "uint256",
          "name": "a",
          "type": "uint256"
        }
      ],
      "name": "toInt256",
      "outputs": [
        {
          "internalType": "int256",
          "name": "",
          "type": "int256"
        }
      ],
      "stateMutability": "pure",
      "type": "function"
    },
    {
      "inputs": [
        {
          "internalType": "uint256",
          "name": "a",
          "type": "uint256"
        }
      ],
      "name": "toUint128",
      "outputs": [
        {
          "internalType": "uint128",
          "name": "",
          "type": "uint128"
        }
      ],
      "stateMutability": "pure",
      "type": "function"
    },
    {
      "inputs": [
        {
          "internalType": "uint256",
          "name": "a",
          "type": "uint256"
        }
      ],
      "name": "toUint16",
      "outputs": [
        {
          "internalType": "uint16",
          "name": "",
          "type": "uint16"
        }
      ],
      "stateMutability": "pure",
      "type": "function"
    },
    {
      "inputs": [
        {
          "internalType": "int256",
          "name": "a",
          "type": "int256"
        }
      ],
      "name": "toUint256",
      "outputs": [
        {
          "internalType": "uint256",
          "name": "",
          "type": "uint256"
        }
      ],
      "stateMutability": "pure",
      "type": "function"
    },
    {
      "inputs": [
        {
          "internalType": "uint256",
          "name": "a",
          "type": "uint256"
        }
      ],
      "name": "toUint32",
      "outputs": [
        {
          "internalType": "uint32",
          "name": "",
          "type": "uint32"
        }
      ],
      "stateMutability": "pure",
      "type": "function"
    },
    {
      "inputs": [
        {
          "internalType": "uint256",
          "name": "a",
          "type": "uint256"
        }
      ],
      "name": "toUint64",
      "outputs": [
        {
          "internalType": "uint64",
          "name": "",
          "type": "uint64"
        }
      ],
      "stateMutability": "pure",
      "type": "function"
    },
    {
      "inputs": [
        {
          "internalType": "uint256",
          "name": "a",
          "type": "uint256"
        }
      ],
      "name": "toUint8",
      "outputs": [
        {
          "internalType": "uint8",
          "name": "",
          "type": "uint8"
        }
      ],
      "stateMutability": "pure",
      "type": "function"
    }
  ],
  "bytecode": "0x608060405234801561001057600080fd5b5061074c806100206000396000f3fe608060405234801561001057600080fd5b506004361061007d5760003560e01c80639374068f1161005b5780639374068f14610186578063c8193255146101d0578063dfbe873b1461021e578063fdcf791b146102605761007d565b80630cc4681e146100825780632665fad0146100ca578063809fdd3314610120575b600080fd5b6100ae6004803603602081101561009857600080fd5b81019080803590602001909291905050506102a2565b604051808260ff1660ff16815260200191505060405180910390f35b6100f6600480360360208110156100e057600080fd5b81019080803590602001909291905050506102b4565b604051808267ffffffffffffffff1667ffffffffffffffff16815260200191505060405180910390f35b61014c6004803603602081101561013657600080fd5b81019080803590602001909291905050506102c6565b60405180826fffffffffffffffffffffffffffffffff166fffffffffffffffffffffffffffffffff16815260200191505060405180910390f35b6101b26004803603602081101561019c57600080fd5b81019080803590602001909291905050506102d8565b604051808261ffff1661ffff16815260200191505060405180910390f35b6101fc600480360360208110156101e657600080fd5b81019080803590602001909291905050506102ea565b604051808263ffffffff1663ffffffff16815260200191505060405180910390f35b61024a6004803603602081101561023457600080fd5b81019080803590602001909291905050506102fc565b6040518082815260200191505060405180910390f35b61028c6004803603602081101561027657600080fd5b810190808035906020019092919050505061030e565b6040518082815260200191505060405180910390f35b60006102ad82610320565b9050919050565b60006102bf82610384565b9050919050565b60006102d1826103ef565b9050919050565b60006102e382610462565b9050919050565b60006102f5826104c7565b9050919050565b60006103078261052e565b9050919050565b6000610319826105b0565b9050919050565b6000610100821061037c576040517f08c379a00000000000000000000000000000000000000000000000000000000081526004018080602001828103825260258152602001806106576025913960400191505060405180910390fd5b819050919050565b60006801000000000000000082106103e7576040517f08c379a00000000000000000000000000000000000000000000000000000000081526004018080602001828103825260268152602001806106a36026913960400191505060405180910390fd5b819050919050565b6000700100000000000000000000000000000000821061045a576040517f08c379a000000000000000000000000000000000000000000000000000000000815260040180806020018281038252602781526020018061067c6027913960400191505060405180910390fd5b819050919050565b60006201000082106104bf576040517f08c379a00000000000000000000000000000000000000000000000000000000081526004018080602001828103825260268152602001806106316026913960400191505060405180910390fd5b819050919050565b60006401000000008210610526576040517f08c379a00000000000000000000000000000000000000000000000000000000081526004018080602001828103825260268152602001806106c96026913960400191505060405180910390fd5b819050919050565b60007f800000000000000000000000000000000000000000000000000000000000000082106105a8576040517f08c379a00000000000000000000000000000000000000000000000000000000081526004018080602001828103825260288152602001806106ef6028913960400191505060405180910390fd5b819050919050565b600080821215610628576040517f08c379a00000000000000000000000000000000000000000000000000000000081526004018080602001828103825260208152602001807f53616665436173743a2076616c7565206d75737420626520706f73697469766581525060200191505060405180910390fd5b81905091905056fe53616665436173743a2076616c756520646f65736e27742066697420696e203136206269747353616665436173743a2076616c756520646f65736e27742066697420696e2038206269747353616665436173743a2076616c756520646f65736e27742066697420696e20313238206269747353616665436173743a2076616c756520646f65736e27742066697420696e203634206269747353616665436173743a2076616c756520646f65736e27742066697420696e203332206269747353616665436173743a2076616c756520646f65736e27742066697420696e20616e20696e74323536a2646970667358221220c3c13d30189384811dd9a9de3af0d1fcdb19701ab7698ecb23841a6b82beebe364736f6c63430006060033",
  "compiler": {
    "name": "solc",
    "version": "0.6.6+commit.6c089d02.Emscripten.clang",
    "optimizer": {
      "enabled": false,
      "runs": 200
    },
    "evmVersion": "petersburg"
  }
}